{
  "contractName": "Hotkey",
  "abi": [
    {
      "inputs": [
        {
          "internalType": "string",
          "name": "_name",
          "type": "string"
        },
        {
          "internalType": "string",
          "name": "_symbol",
          "type": "string"
        },
        {
          "internalType": "string",
          "name": "_initBaseURI",
          "type": "string"
        }
      ],
      "stateMutability": "nonpayable",
      "type": "constructor"
    },
    {
      "anonymous": false,
      "inputs": [
        {
          "indexed": true,
          "internalType": "address",
          "name": "owner",
          "type": "address"
        },
        {
          "indexed": true,
          "internalType": "address",
          "name": "approved",
          "type": "address"
        },
        {
          "indexed": true,
          "internalType": "uint256",
          "name": "tokenId",
          "type": "uint256"
        }
      ],
      "name": "Approval",
      "type": "event"
    },
    {
      "anonymous": false,
      "inputs": [
        {
          "indexed": true,
          "internalType": "address",
          "name": "owner",
          "type": "address"
        },
        {
          "indexed": true,
          "internalType": "address",
          "name": "operator",
          "type": "address"
        },
        {
          "indexed": false,
          "internalType": "bool",
          "name": "approved",
          "type": "bool"
        }
      ],
      "name": "ApprovalForAll",
      "type": "event"
    },
    {
      "anonymous": false,
      "inputs": [
        {
          "indexed": true,
          "internalType": "address",
          "name": "previousOwner",
          "type": "address"
        },
        {
          "indexed": true,
          "internalType": "address",
          "name": "newOwner",
          "type": "address"
        }
      ],
      "name": "OwnershipTransferred",
      "type": "event"
    },
    {
      "anonymous": false,
      "inputs": [
        {
          "indexed": true,
          "internalType": "address",
          "name": "from",
          "type": "address"
        },
        {
          "indexed": true,
          "internalType": "address",
          "name": "to",
          "type": "address"
        },
        {
          "indexed": true,
          "internalType": "uint256",
          "name": "tokenId",
          "type": "uint256"
        }
      ],
      "name": "Transfer",
      "type": "event"
    },
    {
      "inputs": [
        {
          "internalType": "address",
          "name": "to",
          "type": "address"
        },
        {
          "internalType": "uint256",
          "name": "tokenId",
          "type": "uint256"
        }
      ],
      "name": "approve",
      "outputs": [],
      "stateMutability": "nonpayable",
      "type": "function"
    },
    {
      "inputs": [
        {
          "internalType": "address",
          "name": "owner",
          "type": "address"
        }
      ],
      "name": "balanceOf",
      "outputs": [
        {
          "internalType": "uint256",
          "name": "",
          "type": "uint256"
        }
      ],
      "stateMutability": "view",
      "type": "function"
    },
    {
      "inputs": [],
      "name": "baseExtension",
      "outputs": [
        {
          "internalType": "string",
          "name": "",
          "type": "string"
        }
      ],
      "stateMutability": "view",
      "type": "function"
    },
    {
      "inputs": [],
      "name": "baseURI",
      "outputs": [
        {
          "internalType": "string",
          "name": "",
          "type": "string"
        }
      ],
      "stateMutability": "view",
      "type": "function"
    },
    {
      "inputs": [],
      "name": "cost",
      "outputs": [
        {
          "internalType": "uint256",
          "name": "",
          "type": "uint256"
        }
      ],
      "stateMutability": "view",
      "type": "function"
    },
    {
      "inputs": [
        {
          "internalType": "uint256",
          "name": "tokenId",
          "type": "uint256"
        }
      ],
      "name": "getApproved",
      "outputs": [
        {
          "internalType": "address",
          "name": "",
          "type": "address"
        }
      ],
      "stateMutability": "view",
      "type": "function"
    },
    {
      "inputs": [
        {
          "internalType": "address",
          "name": "owner",
          "type": "address"
        },
        {
          "internalType": "address",
          "name": "operator",
          "type": "address"
        }
      ],
      "name": "isApprovedForAll",
      "outputs": [
        {
          "internalType": "bool",
          "name": "",
          "type": "bool"
        }
      ],
      "stateMutability": "view",
      "type": "function"
    },
    {
      "inputs": [],
      "name": "maxMintAmount",
      "outputs": [
        {
          "internalType": "uint256",
          "name": "",
          "type": "uint256"
        }
      ],
      "stateMutability": "view",
      "type": "function"
    },
    {
      "inputs": [],
      "name": "maxSupply",
      "outputs": [
        {
          "internalType": "uint256",
          "name": "",
          "type": "uint256"
        }
      ],
      "stateMutability": "view",
      "type": "function"
    },
    {
      "inputs": [],
      "name": "name",
      "outputs": [
        {
          "internalType": "string",
          "name": "",
          "type": "string"
        }
      ],
      "stateMutability": "view",
      "type": "function"
    },
    {
      "inputs": [],
      "name": "owner",
      "outputs": [
        {
          "internalType": "address",
          "name": "",
          "type": "address"
        }
      ],
      "stateMutability": "view",
      "type": "function"
    },
    {
      "inputs": [
        {
          "internalType": "uint256",
          "name": "tokenId",
          "type": "uint256"
        }
      ],
      "name": "ownerOf",
      "outputs": [
        {
          "internalType": "address",
          "name": "",
          "type": "address"
        }
      ],
      "stateMutability": "view",
      "type": "function"
    },
    {
      "inputs": [],
      "name": "paused",
      "outputs": [
        {
          "internalType": "bool",
          "name": "",
          "type": "bool"
        }
      ],
      "stateMutability": "view",
      "type": "function"
    },
    {
      "inputs": [],
      "name": "renounceOwnership",
      "outputs": [],
      "stateMutability": "nonpayable",
      "type": "function"
    },
    {
      "inputs": [
        {
          "internalType": "address",
          "name": "from",
          "type": "address"
        },
        {
          "internalType": "address",
          "name": "to",
          "type": "address"
        },
        {
          "internalType": "uint256",
          "name": "tokenId",
          "type": "uint256"
        }
      ],
      "name": "safeTransferFrom",
      "outputs": [],
      "stateMutability": "nonpayable",
      "type": "function"
    },
    {
      "inputs": [
        {
          "internalType": "address",
          "name": "from",
          "type": "address"
        },
        {
          "internalType": "address",
          "name": "to",
          "type": "address"
        },
        {
          "internalType": "uint256",
          "name": "tokenId",
          "type": "uint256"
        },
        {
          "internalType": "bytes",
          "name": "_data",
          "type": "bytes"
        }
      ],
      "name": "safeTransferFrom",
      "outputs": [],
      "stateMutability": "nonpayable",
      "type": "function"
    },
    {
      "inputs": [
        {
          "internalType": "address",
          "name": "operator",
          "type": "address"
        },
        {
          "internalType": "bool",
          "name": "approved",
          "type": "bool"
        }
      ],
      "name": "setApprovalForAll",
      "outputs": [],
      "stateMutability": "nonpayable",
      "type": "function"
    },
    {
      "inputs": [
        {
          "internalType": "bytes4",
          "name": "interfaceId",
          "type": "bytes4"
        }
      ],
      "name": "supportsInterface",
      "outputs": [
        {
          "internalType": "bool",
          "name": "",
          "type": "bool"
        }
      ],
      "stateMutability": "view",
      "type": "function"
    },
    {
      "inputs": [],
      "name": "symbol",
      "outputs": [
        {
          "internalType": "string",
          "name": "",
          "type": "string"
        }
      ],
      "stateMutability": "view",
      "type": "function"
    },
    {
      "inputs": [
        {
          "internalType": "uint256",
          "name": "index",
          "type": "uint256"
        }
      ],
      "name": "tokenByIndex",
      "outputs": [
        {
          "internalType": "uint256",
          "name": "",
          "type": "uint256"
        }
      ],
      "stateMutability": "view",
      "type": "function"
    },
    {
      "inputs": [
        {
          "internalType": "address",
          "name": "owner",
          "type": "address"
        },
        {
          "internalType": "uint256",
          "name": "index",
          "type": "uint256"
        }
      ],
      "name": "tokenOfOwnerByIndex",
      "outputs": [
        {
          "internalType": "uint256",
          "name": "",
          "type": "uint256"
        }
      ],
      "stateMutability": "view",
      "type": "function"
    },
    {
      "inputs": [],
      "name": "totalSupply",
      "outputs": [
        {
          "internalType": "uint256",
          "name": "",
          "type": "uint256"
        }
      ],
      "stateMutability": "view",
      "type": "function"
    },
    {
      "inputs": [
        {
          "internalType": "address",
          "name": "from",
          "type": "address"
        },
        {
          "internalType": "address",
          "name": "to",
          "type": "address"
        },
        {
          "internalType": "uint256",
          "name": "tokenId",
          "type": "uint256"
        }
      ],
      "name": "transferFrom",
      "outputs": [],
      "stateMutability": "nonpayable",
      "type": "function"
    },
    {
      "inputs": [
        {
          "internalType": "address",
          "name": "newOwner",
          "type": "address"
        }
      ],
      "name": "transferOwnership",
      "outputs": [],
      "stateMutability": "nonpayable",
      "type": "function"
    },
    {
      "inputs": [
        {
          "internalType": "address",
          "name": "",
          "type": "address"
        }
      ],
      "name": "whitelisted",
      "outputs": [
        {
          "internalType": "bool",
          "name": "",
          "type": "bool"
        }
      ],
      "stateMutability": "view",
      "type": "function"
    },
    {
      "inputs": [
        {
          "internalType": "address",
          "name": "_to",
          "type": "address"
        },
        {
          "internalType": "uint256",
          "name": "_mintAmount",
          "type": "uint256"
        }
      ],
      "name": "mint",
      "outputs": [],
      "stateMutability": "payable",
      "type": "function"
    },
    {
      "inputs": [
        {
          "internalType": "address",
          "name": "_owner",
          "type": "address"
        }
      ],
      "name": "walletOfOwner",
      "outputs": [
        {
          "internalType": "uint256[]",
          "name": "",
          "type": "uint256[]"
        }
      ],
      "stateMutability": "view",
      "type": "function"
    },
    {
      "inputs": [
        {
          "internalType": "uint256",
          "name": "tokenId",
          "type": "uint256"
        }
      ],
      "name": "tokenURI",
      "outputs": [
        {
          "internalType": "string",
          "name": "",
          "type": "string"
        }
      ],
      "stateMutability": "view",
      "type": "function"
    },
    {
      "inputs": [
        {
          "internalType": "uint256",
          "name": "_newCost",
          "type": "uint256"
        }
      ],
      "name": "setCost",
      "outputs": [],
      "stateMutability": "nonpayable",
      "type": "function"
    },
    {
      "inputs": [
        {
          "internalType": "uint256",
          "name": "_newmaxMintAmount",
          "type": "uint256"
        }
      ],
      "name": "setmaxMintAmount",
      "outputs": [],
      "stateMutability": "nonpayable",
      "type": "function"
    },
    {
      "inputs": [
        {
          "internalType": "string",
          "name": "_newBaseURI",
          "type": "string"
        }
      ],
      "name": "setBaseURI",
      "outputs": [],
      "stateMutability": "nonpayable",
      "type": "function"
    },
    {
      "inputs": [
        {
          "internalType": "string",
          "name": "_newBaseExtension",
          "type": "string"
        }
      ],
      "name": "setBaseExtension",
      "outputs": [],
      "stateMutability": "nonpayable",
      "type": "function"
    },
    {
      "inputs": [
        {
          "internalType": "bool",
          "name": "_state",
          "type": "bool"
        }
      ],
      "name": "pause",
      "outputs": [],
      "stateMutability": "nonpayable",
      "type": "function"
    },
    {
      "inputs": [
        {
          "internalType": "address",
          "name": "_user",
          "type": "address"
        }
      ],
      "name": "whitelistUser",
      "outputs": [],
      "stateMutability": "nonpayable",
      "type": "function"
    },
    {
      "inputs": [
        {
          "internalType": "address",
          "name": "_user",
          "type": "address"
        }
      ],
      "name": "removeWhitelistUser",
      "outputs": [],
      "stateMutability": "nonpayable",
      "type": "function"
    },
    {
      "inputs": [],
      "name": "withdraw",
      "outputs": [],
      "stateMutability": "payable",
      "type": "function"
    }
  ],
  "bytecode": "0x60806040526040518060400160405280600581526020017f2e6a736f6e000000000000000000000000000000000000000000000000000000815250600c90805190602001906200005192919062000e2f565b50662386f26fc10000600d55600a600e556002600f556000601060006101000a81548160ff0219169083151502179055503480156200008f57600080fd5b5060405162005b6838038062005b688339818101604052810190620000b591906200107c565b82828160009080519060200190620000cf92919062000e2f565b508060019080519060200190620000e892919062000e2f565b5050506200010b620000ff6200013860201b60201c565b6200014060201b60201c565b6200011c816200020660201b60201c565b6200012f336002620002b160201b60201c565b505050620017a5565b600033905090565b6000600a60009054906101000a900473ffffffffffffffffffffffffffffffffffffffff16905081600a60006101000a81548173ffffffffffffffffffffffffffffffffffffffff021916908373ffffffffffffffffffffffffffffffffffffffff1602179055508173ffffffffffffffffffffffffffffffffffffffff168173ffffffffffffffffffffffffffffffffffffffff167f8be0079c531659141344cd1fd0a4f28419497f9722a3daafe3b4186f6b6457e060405160405180910390a35050565b620002166200013860201b60201c565b73ffffffffffffffffffffffffffffffffffffffff166200023c6200042060201b60201c565b73ffffffffffffffffffffffffffffffffffffffff161462000295576040517f08c379a00000000000000000000000000000000000000000000000000000000081526004016200028c9062001196565b60405180910390fd5b80600b9080519060200190620002ad92919062000e2f565b5050565b6000620002c36200044a60201b60201c565b9050601060009054906101000a900460ff1615620002e057600080fd5b60008211620002ee57600080fd5b600f54821115620002fe57600080fd5b600e5482826200030f9190620011f1565b11156200031b57600080fd5b6200032b6200042060201b60201c565b73ffffffffffffffffffffffffffffffffffffffff163373ffffffffffffffffffffffffffffffffffffffff1614620003d65760011515601160003373ffffffffffffffffffffffffffffffffffffffff1673ffffffffffffffffffffffffffffffffffffffff16815260200190815260200160002060009054906101000a900460ff16151514620003d55781600d54620003c791906200124e565b341015620003d457600080fd5b5b5b6000600190505b8281116200041a5762000404848284620003f89190620011f1565b6200045760201b60201c565b80806200041190620012af565b915050620003dd565b50505050565b6000600a60009054906101000a900473ffffffffffffffffffffffffffffffffffffffff16905090565b6000600880549050905090565b620004798282604051806020016040528060008152506200047d60201b60201c565b5050565b6200048f8383620004eb60201b60201c565b620004a46000848484620006d160201b60201c565b620004e6576040517f08c379a0000000000000000000000000000000000000000000000000000000008152600401620004dd9062001373565b60405180910390fd5b505050565b600073ffffffffffffffffffffffffffffffffffffffff168273ffffffffffffffffffffffffffffffffffffffff1614156200055e576040517f08c379a00000000000000000000000000000000000000000000000000000000081526004016200055590620013e5565b60405180910390fd5b6200056f816200087b60201b60201c565b15620005b2576040517f08c379a0000000000000000000000000000000000000000000000000000000008152600401620005a99062001457565b60405180910390fd5b620005c660008383620008e760201b60201c565b6001600360008473ffffffffffffffffffffffffffffffffffffffff1673ffffffffffffffffffffffffffffffffffffffff1681526020019081526020016000206000828254620006189190620011f1565b92505081905550816002600083815260200190815260200160002060006101000a81548173ffffffffffffffffffffffffffffffffffffffff021916908373ffffffffffffffffffffffffffffffffffffffff160217905550808273ffffffffffffffffffffffffffffffffffffffff16600073ffffffffffffffffffffffffffffffffffffffff167fddf252ad1be2c89b69c2b068fc378daa952ba7f163c4a11628f55a4df523b3ef60405160405180910390a45050565b6000620006ff8473ffffffffffffffffffffffffffffffffffffffff1662000a2e60201b62001aae1760201c565b156200086e578373ffffffffffffffffffffffffffffffffffffffff1663150b7a02620007316200013860201b60201c565b8786866040518563ffffffff1660e01b81526004016200075594939291906200152c565b6020604051808303816000875af19250505080156200079457506040513d601f19601f82011682018060405250810190620007919190620015dd565b60015b6200081d573d8060008114620007c7576040519150601f19603f3d011682016040523d82523d6000602084013e620007cc565b606091505b5060008151141562000815576040517f08c379a00000000000000000000000000000000000000000000000000000000081526004016200080c9062001373565b60405180910390fd5b805181602001fd5b63150b7a0260e01b7bffffffffffffffffffffffffffffffffffffffffffffffffffffffff1916817bffffffffffffffffffffffffffffffffffffffffffffffffffffffff19161491505062000873565b600190505b949350505050565b60008073ffffffffffffffffffffffffffffffffffffffff166002600084815260200190815260200160002060009054906101000a900473ffffffffffffffffffffffffffffffffffffffff1673ffffffffffffffffffffffffffffffffffffffff1614159050919050565b620008ff83838362000a4160201b62001ac11760201c565b600073ffffffffffffffffffffffffffffffffffffffff168373ffffffffffffffffffffffffffffffffffffffff1614156200094c57620009468162000a4660201b60201c565b62000994565b8173ffffffffffffffffffffffffffffffffffffffff168373ffffffffffffffffffffffffffffffffffffffff1614620009935762000992838262000a8f60201b60201c565b5b5b600073ffffffffffffffffffffffffffffffffffffffff168273ffffffffffffffffffffffffffffffffffffffff161415620009e157620009db8162000c0c60201b60201c565b62000a29565b8273ffffffffffffffffffffffffffffffffffffffff168273ffffffffffffffffffffffffffffffffffffffff161462000a285762000a27828262000ce860201b60201c565b5b5b505050565b600080823b905060008111915050919050565b505050565b6008805490506009600083815260200190815260200160002081905550600881908060018154018082558091505060019003906000526020600020016000909190919091505550565b6000600162000aa98462000d7460201b620014341760201c565b62000ab591906200160f565b905060006007600084815260200190815260200160002054905081811462000b9b576000600660008673ffffffffffffffffffffffffffffffffffffffff1673ffffffffffffffffffffffffffffffffffffffff168152602001908152602001600020600084815260200190815260200160002054905080600660008773ffffffffffffffffffffffffffffffffffffffff1673ffffffffffffffffffffffffffffffffffffffff168152602001908152602001600020600084815260200190815260200160002081905550816007600083815260200190815260200160002081905550505b6007600084815260200190815260200160002060009055600660008573ffffffffffffffffffffffffffffffffffffffff1673ffffffffffffffffffffffffffffffffffffffff16815260200190815260200160002060008381526020019081526020016000206000905550505050565b6000600160088054905062000c2291906200160f565b905060006009600084815260200190815260200160002054905060006008838154811062000c555762000c546200164a565b5b90600052602060002001549050806008838154811062000c7a5762000c796200164a565b5b90600052602060002001819055508160096000838152602001908152602001600020819055506009600085815260200190815260200160002060009055600880548062000ccc5762000ccb62001679565b5b6001900381819060005260206000200160009055905550505050565b600062000d008362000d7460201b620014341760201c565b905081600660008573ffffffffffffffffffffffffffffffffffffffff1673ffffffffffffffffffffffffffffffffffffffff168152602001908152602001600020600083815260200190815260200160002081905550806007600084815260200190815260200160002081905550505050565b60008073ffffffffffffffffffffffffffffffffffffffff168273ffffffffffffffffffffffffffffffffffffffff16141562000de8576040517f08c379a000000000000000000000000000000000000000000000000000000000815260040162000ddf906200171e565b60405180910390fd5b600360008373ffffffffffffffffffffffffffffffffffffffff1673ffffffffffffffffffffffffffffffffffffffff168152602001908152602001600020549050919050565b82805462000e3d906200176f565b90600052602060002090601f01602090048101928262000e61576000855562000ead565b82601f1062000e7c57805160ff191683800117855562000ead565b8280016001018555821562000ead579182015b8281111562000eac57825182559160200191906001019062000e8f565b5b50905062000ebc919062000ec0565b5090565b5b8082111562000edb57600081600090555060010162000ec1565b5090565b6000604051905090565b600080fd5b600080fd5b600080fd5b600080fd5b6000601f19601f8301169050919050565b7f4e487b7100000000000000000000000000000000000000000000000000000000600052604160045260246000fd5b62000f488262000efd565b810181811067ffffffffffffffff8211171562000f6a5762000f6962000f0e565b5b80604052505050565b600062000f7f62000edf565b905062000f8d828262000f3d565b919050565b600067ffffffffffffffff82111562000fb05762000faf62000f0e565b5b62000fbb8262000efd565b9050602081019050919050565b60005b8381101562000fe857808201518184015260208101905062000fcb565b8381111562000ff8576000848401525b50505050565b6000620010156200100f8462000f92565b62000f73565b90508281526020810184848401111562001034576200103362000ef8565b5b6200104184828562000fc8565b509392505050565b600082601f83011262001061576200106062000ef3565b5b81516200107384826020860162000ffe565b91505092915050565b60008060006060848603121562001098576200109762000ee9565b5b600084015167ffffffffffffffff811115620010b957620010b862000eee565b5b620010c78682870162001049565b935050602084015167ffffffffffffffff811115620010eb57620010ea62000eee565b5b620010f98682870162001049565b925050604084015167ffffffffffffffff8111156200111d576200111c62000eee565b5b6200112b8682870162001049565b9150509250925092565b600082825260208201905092915050565b7f4f776e61626c653a2063616c6c6572206973206e6f7420746865206f776e6572600082015250565b60006200117e60208362001135565b91506200118b8262001146565b602082019050919050565b60006020820190508181036000830152620011b1816200116f565b9050919050565b6000819050919050565b7f4e487b7100000000000000000000000000000000000000000000000000000000600052601160045260246000fd5b6000620011fe82620011b8565b91506200120b83620011b8565b9250827fffffffffffffffffffffffffffffffffffffffffffffffffffffffffffffffff03821115620012435762001242620011c2565b5b828201905092915050565b60006200125b82620011b8565b91506200126883620011b8565b9250817fffffffffffffffffffffffffffffffffffffffffffffffffffffffffffffffff0483118215151615620012a457620012a3620011c2565b5b828202905092915050565b6000620012bc82620011b8565b91507fffffffffffffffffffffffffffffffffffffffffffffffffffffffffffffffff821415620012f257620012f1620011c2565b5b600182019050919050565b7f4552433732313a207472616e7366657220746f206e6f6e20455243373231526560008201527f63656976657220696d706c656d656e7465720000000000000000000000000000602082015250565b60006200135b60328362001135565b91506200136882620012fd565b604082019050919050565b600060208201905081810360008301526200138e816200134c565b9050919050565b7f4552433732313a206d696e7420746f20746865207a65726f2061646472657373600082015250565b6000620013cd60208362001135565b9150620013da8262001395565b602082019050919050565b600060208201905081810360008301526200140081620013be565b9050919050565b7f4552433732313a20746f6b656e20616c7265616479206d696e74656400000000600082015250565b60006200143f601c8362001135565b91506200144c8262001407565b602082019050919050565b60006020820190508181036000830152620014728162001430565b9050919050565b600073ffffffffffffffffffffffffffffffffffffffff82169050919050565b6000620014a68262001479565b9050919050565b620014b88162001499565b82525050565b620014c981620011b8565b82525050565b600081519050919050565b600082825260208201905092915050565b6000620014f882620014cf565b620015048185620014da565b93506200151681856020860162000fc8565b620015218162000efd565b840191505092915050565b6000608082019050620015436000830187620014ad565b620015526020830186620014ad565b620015616040830185620014be565b8181036060830152620015758184620014eb565b905095945050505050565b60007fffffffff0000000000000000000000000000000000000000000000000000000082169050919050565b620015b78162001580565b8114620015c357600080fd5b50565b600081519050620015d781620015ac565b92915050565b600060208284031215620015f657620015f562000ee9565b5b60006200160684828501620015c6565b91505092915050565b60006200161c82620011b8565b91506200162983620011b8565b9250828210156200163f576200163e620011c2565b5b828203905092915050565b7f4e487b7100000000000000000000000000000000000000000000000000000000600052603260045260246000fd5b7f4e487b7100000000000000000000000000000000000000000000000000000000600052603160045260246000fd5b7f4552433732313a2062616c616e636520717565727920666f7220746865207a6560008201527f726f206164647265737300000000000000000000000000000000000000000000602082015250565b600062001706602a8362001135565b91506200171382620016a8565b604082019050919050565b600060208201905081810360008301526200173981620016f7565b9050919050565b7f4e487b7100000000000000000000000000000000000000000000000000000000600052602260045260246000fd5b600060028204905060018216806200178857607f821691505b602082108114156200179f576200179e62001740565b5b50919050565b6143b380620017b56000396000f3fe60806040526004361061020f5760003560e01c806355f804b311610118578063a22cb465116100a0578063d5abeb011161006f578063d5abeb011461077f578063d936547e146107aa578063da3ef23f146107e7578063e985e9c514610810578063f2fde38b1461084d5761020f565b8063a22cb465146106c5578063b88d4fde146106ee578063c668286214610717578063c87b56dd146107425761020f565b806370a08231116100e757806370a08231146105f2578063715018a61461062f5780637f00c7a6146106465780638da5cb5b1461066f57806395d89b411461069a5761020f565b806355f804b3146105365780635c975abb1461055f5780636352211e1461058a5780636c0360eb146105c75761020f565b80632f745c591161019b57806342842e0e1161016a57806342842e0e14610441578063438b63001461046a57806344a0d68a146104a75780634a4c560d146104d05780634f6ccce7146104f95761020f565b80632f745c59146103b557806330cc7ae0146103f25780633ccfd60b1461041b57806340c10f19146104255761020f565b8063095ea7b3116101e2578063095ea7b3146102e257806313faede61461030b57806318160ddd14610336578063239c70ae1461036157806323b872dd1461038c5761020f565b806301ffc9a71461021457806302329a291461025157806306fdde031461027a578063081812fc146102a5575b600080fd5b34801561022057600080fd5b5061023b60048036038101906102369190612df3565b610876565b6040516102489190612e3b565b60405180910390f35b34801561025d57600080fd5b5061027860048036038101906102739190612e82565b6108f0565b005b34801561028657600080fd5b5061028f610989565b60405161029c9190612f48565b60405180910390f35b3480156102b157600080fd5b506102cc60048036038101906102c79190612fa0565b610a1b565b6040516102d9919061300e565b60405180910390f35b3480156102ee57600080fd5b5061030960048036038101906103049190613055565b610aa0565b005b34801561031757600080fd5b50610320610bb8565b60405161032d91906130a4565b60405180910390f35b34801561034257600080fd5b5061034b610bbe565b60405161035891906130a4565b60405180910390f35b34801561036d57600080fd5b50610376610bcb565b60405161038391906130a4565b60405180910390f35b34801561039857600080fd5b506103b360048036038101906103ae91906130bf565b610bd1565b005b3480156103c157600080fd5b506103dc60048036038101906103d79190613055565b610c31565b6040516103e991906130a4565b60405180910390f35b3480156103fe57600080fd5b5061041960048036038101906104149190613112565b610cd6565b005b610423610dad565b005b61043f600480360381019061043a9190613055565b610e69565b005b34801561044d57600080fd5b50610468600480360381019061046391906130bf565b610faf565b005b34801561047657600080fd5b50610491600480360381019061048c9190613112565b610fcf565b60405161049e91906131fd565b60405180910390f35b3480156104b357600080fd5b506104ce60048036038101906104c99190612fa0565b61107d565b005b3480156104dc57600080fd5b506104f760048036038101906104f29190613112565b611103565b005b34801561050557600080fd5b50610520600480360381019061051b9190612fa0565b6111da565b60405161052d91906130a4565b60405180910390f35b34801561054257600080fd5b5061055d60048036038101906105589190613354565b61124b565b005b34801561056b57600080fd5b506105746112e1565b6040516105819190612e3b565b60405180910390f35b34801561059657600080fd5b506105b160048036038101906105ac9190612fa0565b6112f4565b6040516105be919061300e565b60405180910390f35b3480156105d357600080fd5b506105dc6113a6565b6040516105e99190612f48565b60405180910390f35b3480156105fe57600080fd5b5061061960048036038101906106149190613112565b611434565b60405161062691906130a4565b60405180910390f35b34801561063b57600080fd5b506106446114ec565b005b34801561065257600080fd5b5061066d60048036038101906106689190612fa0565b611574565b005b34801561067b57600080fd5b506106846115fa565b604051610691919061300e565b60405180910390f35b3480156106a657600080fd5b506106af611624565b6040516106bc9190612f48565b60405180910390f35b3480156106d157600080fd5b506106ec60048036038101906106e7919061339d565b6116b6565b005b3480156106fa57600080fd5b506107156004803603810190610710919061347e565b6116cc565b005b34801561072357600080fd5b5061072c61172e565b6040516107399190612f48565b60405180910390f35b34801561074e57600080fd5b5061076960048036038101906107649190612fa0565b6117bc565b6040516107769190612f48565b60405180910390f35b34801561078b57600080fd5b50610794611866565b6040516107a191906130a4565b60405180910390f35b3480156107b657600080fd5b506107d160048036038101906107cc9190613112565b61186c565b6040516107de9190612e3b565b60405180910390f35b3480156107f357600080fd5b5061080e60048036038101906108099190613354565b61188c565b005b34801561081c57600080fd5b5061083760048036038101906108329190613501565b611922565b6040516108449190612e3b565b60405180910390f35b34801561085957600080fd5b50610874600480360381019061086f9190613112565b6119b6565b005b60007f780e9d63000000000000000000000000000000000000000000000000000000007bffffffffffffffffffffffffffffffffffffffffffffffffffffffff1916827bffffffffffffffffffffffffffffffffffffffffffffffffffffffff191614806108e957506108e882611ac6565b5b9050919050565b6108f8611ba8565b73ffffffffffffffffffffffffffffffffffffffff166109166115fa565b73ffffffffffffffffffffffffffffffffffffffff161461096c576040517f08c379a00000000000000000000000000000000000000000000000000000000081526004016109639061358d565b60405180910390fd5b80601060006101000a81548160ff02191690831515021790555050565b606060008054610998906135dc565b80601f01602080910402602001604051908101604052809291908181526020018280546109c4906135dc565b8015610a115780601f106109e657610100808354040283529160200191610a11565b820191906000526020600020905b8154815290600101906020018083116109f457829003601f168201915b5050505050905090565b6000610a2682611bb0565b610a65576040517f08c379a0000000000000000000000000000000000000000000000000000000008152600401610a5c90613680565b60405180910390fd5b6004600083815260200190815260200160002060009054906101000a900473ffffffffffffffffffffffffffffffffffffffff169050919050565b6000610aab826112f4565b90508073ffffffffffffffffffffffffffffffffffffffff168373ffffffffffffffffffffffffffffffffffffffff161415610b1c576040517f08c379a0000000000000000000000000000000000000000000000000000000008152600401610b1390613712565b60405180910390fd5b8073ffffffffffffffffffffffffffffffffffffffff16610b3b611ba8565b73ffffffffffffffffffffffffffffffffffffffff161480610b6a5750610b6981610b64611ba8565b611922565b5b610ba9576040517f08c379a0000000000000000000000000000000000000000000000000000000008152600401610ba0906137a4565b60405180910390fd5b610bb38383611c1c565b505050565b600d5481565b6000600880549050905090565b600f5481565b610be2610bdc611ba8565b82611cd5565b610c21576040517f08c379a0000000000000000000000000000000000000000000000000000000008152600401610c1890613836565b60405180910390fd5b610c2c838383611db3565b505050565b6000610c3c83611434565b8210610c7d576040517f08c379a0000000000000000000000000000000000000000000000000000000008152600401610c74906138c8565b60405180910390fd5b600660008473ffffffffffffffffffffffffffffffffffffffff1673ffffffffffffffffffffffffffffffffffffffff168152602001908152602001600020600083815260200190815260200160002054905092915050565b610cde611ba8565b73ffffffffffffffffffffffffffffffffffffffff16610cfc6115fa565b73ffffffffffffffffffffffffffffffffffffffff1614610d52576040517f08c379a0000000000000000000000000000000000000000000000000000000008152600401610d499061358d565b60405180910390fd5b6000601160008373ffffffffffffffffffffffffffffffffffffffff1673ffffffffffffffffffffffffffffffffffffffff16815260200190815260200160002060006101000a81548160ff02191690831515021790555050565b610db5611ba8565b73ffffffffffffffffffffffffffffffffffffffff16610dd36115fa565b73ffffffffffffffffffffffffffffffffffffffff1614610e29576040517f08c379a0000000000000000000000000000000000000000000000000000000008152600401610e209061358d565b60405180910390fd5b3373ffffffffffffffffffffffffffffffffffffffff166108fc479081150290604051600060405180830381858888f19350505050610e6757600080fd5b565b6000610e73610bbe565b9050601060009054906101000a900460ff1615610e8f57600080fd5b60008211610e9c57600080fd5b600f54821115610eab57600080fd5b600e548282610eba9190613917565b1115610ec557600080fd5b610ecd6115fa565b73ffffffffffffffffffffffffffffffffffffffff163373ffffffffffffffffffffffffffffffffffffffff1614610f735760011515601160003373ffffffffffffffffffffffffffffffffffffffff1673ffffffffffffffffffffffffffffffffffffffff16815260200190815260200160002060009054906101000a900460ff16151514610f725781600d54610f65919061396d565b341015610f7157600080fd5b5b5b6000600190505b828111610fa957610f96848284610f919190613917565b61200f565b8080610fa1906139c7565b915050610f7a565b50505050565b610fca838383604051806020016040528060008152506116cc565b505050565b60606000610fdc83611434565b905060008167ffffffffffffffff811115610ffa57610ff9613229565b5b6040519080825280602002602001820160405280156110285781602001602082028036833780820191505090505b50905060005b82811015611072576110408582610c31565b82828151811061105357611052613a10565b5b602002602001018181525050808061106a906139c7565b91505061102e565b508092505050919050565b611085611ba8565b73ffffffffffffffffffffffffffffffffffffffff166110a36115fa565b73ffffffffffffffffffffffffffffffffffffffff16146110f9576040517f08c379a00000000000000000000000000000000000000000000000000000000081526004016110f09061358d565b60405180910390fd5b80600d8190555050565b61110b611ba8565b73ffffffffffffffffffffffffffffffffffffffff166111296115fa565b73ffffffffffffffffffffffffffffffffffffffff161461117f576040517f08c379a00000000000000000000000000000000000000000000000000000000081526004016111769061358d565b60405180910390fd5b6001601160008373ffffffffffffffffffffffffffffffffffffffff1673ffffffffffffffffffffffffffffffffffffffff16815260200190815260200160002060006101000a81548160ff02191690831515021790555050565b60006111e4610bbe565b8210611225576040517f08c379a000000000000000000000000000000000000000000000000000000000815260040161121c90613ab1565b60405180910390fd5b6008828154811061123957611238613a10565b5b90600052602060002001549050919050565b611253611ba8565b73ffffffffffffffffffffffffffffffffffffffff166112716115fa565b73ffffffffffffffffffffffffffffffffffffffff16146112c7576040517f08c379a00000000000000000000000000000000000000000000000000000000081526004016112be9061358d565b60405180910390fd5b80600b90805190602001906112dd929190612ce4565b5050565b601060009054906101000a900460ff1681565b6000806002600084815260200190815260200160002060009054906101000a900473ffffffffffffffffffffffffffffffffffffffff169050600073ffffffffffffffffffffffffffffffffffffffff168173ffffffffffffffffffffffffffffffffffffffff16141561139d576040517f08c379a000000000000000000000000000000000000000000000000000000000815260040161139490613b43565b60405180910390fd5b80915050919050565b600b80546113b3906135dc565b80601f01602080910402602001604051908101604052809291908181526020018280546113df906135dc565b801561142c5780601f106114015761010080835404028352916020019161142c565b820191906000526020600020905b81548152906001019060200180831161140f57829003601f168201915b505050505081565b60008073ffffffffffffffffffffffffffffffffffffffff168273ffffffffffffffffffffffffffffffffffffffff1614156114a5576040517f08c379a000000000000000000000000000000000000000000000000000000000815260040161149c90613bd5565b60405180910390fd5b600360008373ffffffffffffffffffffffffffffffffffffffff1673ffffffffffffffffffffffffffffffffffffffff168152602001908152602001600020549050919050565b6114f4611ba8565b73ffffffffffffffffffffffffffffffffffffffff166115126115fa565b73ffffffffffffffffffffffffffffffffffffffff1614611568576040517f08c379a000000000000000000000000000000000000000000000000000000000815260040161155f9061358d565b60405180910390fd5b611572600061202d565b565b61157c611ba8565b73ffffffffffffffffffffffffffffffffffffffff1661159a6115fa565b73ffffffffffffffffffffffffffffffffffffffff16146115f0576040517f08c379a00000000000000000000000000000000000000000000000000000000081526004016115e79061358d565b60405180910390fd5b80600f8190555050565b6000600a60009054906101000a900473ffffffffffffffffffffffffffffffffffffffff16905090565b606060018054611633906135dc565b80601f016020809104026020016040519081016040528092919081815260200182805461165f906135dc565b80156116ac5780601f10611681576101008083540402835291602001916116ac565b820191906000526020600020905b81548152906001019060200180831161168f57829003601f168201915b5050505050905090565b6116c86116c1611ba8565b83836120f3565b5050565b6116dd6116d7611ba8565b83611cd5565b61171c576040517f08c379a000000000000000000000000000000000000000000000000000000000815260040161171390613836565b60405180910390fd5b61172884848484612260565b50505050565b600c805461173b906135dc565b80601f0160208091040260200160405190810160405280929190818152602001828054611767906135dc565b80156117b45780601f10611789576101008083540402835291602001916117b4565b820191906000526020600020905b81548152906001019060200180831161179757829003601f168201915b505050505081565b60606117c782611bb0565b611806576040517f08c379a00000000000000000000000000000000000000000000000000000000081526004016117fd90613c67565b60405180910390fd5b60006118106122bc565b90506000815111611830576040518060200160405280600081525061185e565b8061183a8461234e565b600c60405160200161184e93929190613d57565b6040516020818303038152906040525b915050919050565b600e5481565b60116020528060005260406000206000915054906101000a900460ff1681565b611894611ba8565b73ffffffffffffffffffffffffffffffffffffffff166118b26115fa565b73ffffffffffffffffffffffffffffffffffffffff1614611908576040517f08c379a00000000000000000000000000000000000000000000000000000000081526004016118ff9061358d565b60405180910390fd5b80600c908051906020019061191e929190612ce4565b5050565b6000600560008473ffffffffffffffffffffffffffffffffffffffff1673ffffffffffffffffffffffffffffffffffffffff16815260200190815260200160002060008373ffffffffffffffffffffffffffffffffffffffff1673ffffffffffffffffffffffffffffffffffffffff16815260200190815260200160002060009054906101000a900460ff16905092915050565b6119be611ba8565b73ffffffffffffffffffffffffffffffffffffffff166119dc6115fa565b73ffffffffffffffffffffffffffffffffffffffff1614611a32576040517f08c379a0000000000000000000000000000000000000000000000000000000008152600401611a299061358d565b60405180910390fd5b600073ffffffffffffffffffffffffffffffffffffffff168173ffffffffffffffffffffffffffffffffffffffff161415611aa2576040517f08c379a0000000000000000000000000000000000000000000000000000000008152600401611a9990613dfa565b60405180910390fd5b611aab8161202d565b50565b600080823b905060008111915050919050565b505050565b60007f80ac58cd000000000000000000000000000000000000000000000000000000007bffffffffffffffffffffffffffffffffffffffffffffffffffffffff1916827bffffffffffffffffffffffffffffffffffffffffffffffffffffffff19161480611b9157507f5b5e139f000000000000000000000000000000000000000000000000000000007bffffffffffffffffffffffffffffffffffffffffffffffffffffffff1916827bffffffffffffffffffffffffffffffffffffffffffffffffffffffff1916145b80611ba15750611ba0826124af565b5b9050919050565b600033905090565b60008073ffffffffffffffffffffffffffffffffffffffff166002600084815260200190815260200160002060009054906101000a900473ffffffffffffffffffffffffffffffffffffffff1673ffffffffffffffffffffffffffffffffffffffff1614159050919050565b816004600083815260200190815260200160002060006101000a81548173ffffffffffffffffffffffffffffffffffffffff021916908373ffffffffffffffffffffffffffffffffffffffff160217905550808273ffffffffffffffffffffffffffffffffffffffff16611c8f836112f4565b73ffffffffffffffffffffffffffffffffffffffff167f8c5be1e5ebec7d5bd14f71427d1e84f3dd0314c0f7b2291e5b200ac8c7c3b92560405160405180910390a45050565b6000611ce082611bb0565b611d1f576040517f08c379a0000000000000000000000000000000000000000000000000000000008152600401611d1690613e8c565b60405180910390fd5b6000611d2a836112f4565b90508073ffffffffffffffffffffffffffffffffffffffff168473ffffffffffffffffffffffffffffffffffffffff161480611d9957508373ffffffffffffffffffffffffffffffffffffffff16611d8184610a1b565b73ffffffffffffffffffffffffffffffffffffffff16145b80611daa5750611da98185611922565b5b91505092915050565b8273ffffffffffffffffffffffffffffffffffffffff16611dd3826112f4565b73ffffffffffffffffffffffffffffffffffffffff1614611e29576040517f08c379a0000000000000000000000000000000000000000000000000000000008152600401611e2090613f1e565b60405180910390fd5b600073ffffffffffffffffffffffffffffffffffffffff168273ffffffffffffffffffffffffffffffffffffffff161415611e99576040517f08c379a0000000000000000000000000000000000000000000000000000000008152600401611e9090613fb0565b60405180910390fd5b611ea4838383612519565b611eaf600082611c1c565b6001600360008573ffffffffffffffffffffffffffffffffffffffff1673ffffffffffffffffffffffffffffffffffffffff1681526020019081526020016000206000828254611eff9190613fd0565b925050819055506001600360008473ffffffffffffffffffffffffffffffffffffffff1673ffffffffffffffffffffffffffffffffffffffff1681526020019081526020016000206000828254611f569190613917565b92505081905550816002600083815260200190815260200160002060006101000a81548173ffffffffffffffffffffffffffffffffffffffff021916908373ffffffffffffffffffffffffffffffffffffffff160217905550808273ffffffffffffffffffffffffffffffffffffffff168473ffffffffffffffffffffffffffffffffffffffff167fddf252ad1be2c89b69c2b068fc378daa952ba7f163c4a11628f55a4df523b3ef60405160405180910390a4505050565b61202982826040518060200160405280600081525061262d565b5050565b6000600a60009054906101000a900473ffffffffffffffffffffffffffffffffffffffff16905081600a60006101000a81548173ffffffffffffffffffffffffffffffffffffffff021916908373ffffffffffffffffffffffffffffffffffffffff1602179055508173ffffffffffffffffffffffffffffffffffffffff168173ffffffffffffffffffffffffffffffffffffffff167f8be0079c531659141344cd1fd0a4f28419497f9722a3daafe3b4186f6b6457e060405160405180910390a35050565b8173ffffffffffffffffffffffffffffffffffffffff168373ffffffffffffffffffffffffffffffffffffffff161415612162576040517f08c379a000000000000000000000000000000000000000000000000000000000815260040161215990614050565b60405180910390fd5b80600560008573ffffffffffffffffffffffffffffffffffffffff1673ffffffffffffffffffffffffffffffffffffffff16815260200190815260200160002060008473ffffffffffffffffffffffffffffffffffffffff1673ffffffffffffffffffffffffffffffffffffffff16815260200190815260200160002060006101000a81548160ff0219169083151502179055508173ffffffffffffffffffffffffffffffffffffffff168373ffffffffffffffffffffffffffffffffffffffff167f17307eab39ab6107e8899845ad3d59bd9653f200f220920489ca2b5937696c31836040516122539190612e3b565b60405180910390a3505050565b61226b848484611db3565b61227784848484612688565b6122b6576040517f08c379a00000000000000000000000000000000000000000000000000000000081526004016122ad906140e2565b60405180910390fd5b50505050565b6060600b80546122cb906135dc565b80601f01602080910402602001604051908101604052809291908181526020018280546122f7906135dc565b80156123445780601f1061231957610100808354040283529160200191612344565b820191906000526020600020905b81548152906001019060200180831161232757829003601f168201915b5050505050905090565b60606000821415612396576040518060400160405280600181526020017f300000000000000000000000000000000000000000000000000000000000000081525090506124aa565b600082905060005b600082146123c85780806123b1906139c7565b915050600a826123c19190614131565b915061239e565b60008167ffffffffffffffff8111156123e4576123e3613229565b5b6040519080825280601f01601f1916602001820160405280156124165781602001600182028036833780820191505090505b5090505b600085146124a35760018261242f9190613fd0565b9150600a8561243e9190614162565b603061244a9190613917565b60f81b8183815181106124605761245f613a10565b5b60200101907effffffffffffffffffffffffffffffffffffffffffffffffffffffffffffff1916908160001a905350600a8561249c9190614131565b945061241a565b8093505050505b919050565b60007f01ffc9a7000000000000000000000000000000000000000000000000000000007bffffffffffffffffffffffffffffffffffffffffffffffffffffffff1916827bffffffffffffffffffffffffffffffffffffffffffffffffffffffff1916149050919050565b612524838383611ac1565b600073ffffffffffffffffffffffffffffffffffffffff168373ffffffffffffffffffffffffffffffffffffffff1614156125675761256281612810565b6125a6565b8173ffffffffffffffffffffffffffffffffffffffff168373ffffffffffffffffffffffffffffffffffffffff16146125a5576125a48382612859565b5b5b600073ffffffffffffffffffffffffffffffffffffffff168273ffffffffffffffffffffffffffffffffffffffff1614156125e9576125e4816129c6565b612628565b8273ffffffffffffffffffffffffffffffffffffffff168273ffffffffffffffffffffffffffffffffffffffff1614612627576126268282612a97565b5b5b505050565b6126378383612b16565b6126446000848484612688565b612683576040517f08c379a000000000000000000000000000000000000000000000000000000000815260040161267a906140e2565b60405180910390fd5b505050565b60006126a98473ffffffffffffffffffffffffffffffffffffffff16611aae565b15612803578373ffffffffffffffffffffffffffffffffffffffff1663150b7a026126d2611ba8565b8786866040518563ffffffff1660e01b81526004016126f494939291906141e8565b6020604051808303816000875af192505050801561273057506040513d601f19601f8201168201806040525081019061272d9190614249565b60015b6127b3573d8060008114612760576040519150601f19603f3d011682016040523d82523d6000602084013e612765565b606091505b506000815114156127ab576040517f08c379a00000000000000000000000000000000000000000000000000000000081526004016127a2906140e2565b60405180910390fd5b805181602001fd5b63150b7a0260e01b7bffffffffffffffffffffffffffffffffffffffffffffffffffffffff1916817bffffffffffffffffffffffffffffffffffffffffffffffffffffffff191614915050612808565b600190505b949350505050565b6008805490506009600083815260200190815260200160002081905550600881908060018154018082558091505060019003906000526020600020016000909190919091505550565b6000600161286684611434565b6128709190613fd0565b9050600060076000848152602001908152602001600020549050818114612955576000600660008673ffffffffffffffffffffffffffffffffffffffff1673ffffffffffffffffffffffffffffffffffffffff168152602001908152602001600020600084815260200190815260200160002054905080600660008773ffffffffffffffffffffffffffffffffffffffff1673ffffffffffffffffffffffffffffffffffffffff168152602001908152602001600020600084815260200190815260200160002081905550816007600083815260200190815260200160002081905550505b6007600084815260200190815260200160002060009055600660008573ffffffffffffffffffffffffffffffffffffffff1673ffffffffffffffffffffffffffffffffffffffff16815260200190815260200160002060008381526020019081526020016000206000905550505050565b600060016008805490506129da9190613fd0565b9050600060096000848152602001908152602001600020549050600060088381548110612a0a57612a09613a10565b5b906000526020600020015490508060088381548110612a2c57612a2b613a10565b5b906000526020600020018190555081600960008381526020019081526020016000208190555060096000858152602001908152602001600020600090556008805480612a7b57612a7a614276565b5b6001900381819060005260206000200160009055905550505050565b6000612aa283611434565b905081600660008573ffffffffffffffffffffffffffffffffffffffff1673ffffffffffffffffffffffffffffffffffffffff168152602001908152602001600020600083815260200190815260200160002081905550806007600084815260200190815260200160002081905550505050565b600073ffffffffffffffffffffffffffffffffffffffff168273ffffffffffffffffffffffffffffffffffffffff161415612b86576040517f08c379a0000000000000000000000000000000000000000000000000000000008152600401612b7d906142f1565b60405180910390fd5b612b8f81611bb0565b15612bcf576040517f08c379a0000000000000000000000000000000000000000000000000000000008152600401612bc69061435d565b60405180910390fd5b612bdb60008383612519565b6001600360008473ffffffffffffffffffffffffffffffffffffffff1673ffffffffffffffffffffffffffffffffffffffff1681526020019081526020016000206000828254612c2b9190613917565b92505081905550816002600083815260200190815260200160002060006101000a81548173ffffffffffffffffffffffffffffffffffffffff021916908373ffffffffffffffffffffffffffffffffffffffff160217905550808273ffffffffffffffffffffffffffffffffffffffff16600073ffffffffffffffffffffffffffffffffffffffff167fddf252ad1be2c89b69c2b068fc378daa952ba7f163c4a11628f55a4df523b3ef60405160405180910390a45050565b828054612cf0906135dc565b90600052602060002090601f016020900481019282612d125760008555612d59565b82601f10612d2b57805160ff1916838001178555612d59565b82800160010185558215612d59579182015b82811115612d58578251825591602001919060010190612d3d565b5b509050612d669190612d6a565b5090565b5b80821115612d83576000816000905550600101612d6b565b5090565b6000604051905090565b600080fd5b600080fd5b60007fffffffff0000000000000000000000000000000000000000000000000000000082169050919050565b612dd081612d9b565b8114612ddb57600080fd5b50565b600081359050612ded81612dc7565b92915050565b600060208284031215612e0957612e08612d91565b5b6000612e1784828501612dde565b91505092915050565b60008115159050919050565b612e3581612e20565b82525050565b6000602082019050612e506000830184612e2c565b92915050565b612e5f81612e20565b8114612e6a57600080fd5b50565b600081359050612e7c81612e56565b92915050565b600060208284031215612e9857612e97612d91565b5b6000612ea684828501612e6d565b91505092915050565b600081519050919050565b600082825260208201905092915050565b60005b83811015612ee9578082015181840152602081019050612ece565b83811115612ef8576000848401525b50505050565b6000601f19601f8301169050919050565b6000612f1a82612eaf565b612f248185612eba565b9350612f34818560208601612ecb565b612f3d81612efe565b840191505092915050565b60006020820190508181036000830152612f628184612f0f565b905092915050565b6000819050919050565b612f7d81612f6a565b8114612f8857600080fd5b50565b600081359050612f9a81612f74565b92915050565b600060208284031215612fb657612fb5612d91565b5b6000612fc484828501612f8b565b91505092915050565b600073ffffffffffffffffffffffffffffffffffffffff82169050919050565b6000612ff882612fcd565b9050919050565b61300881612fed565b82525050565b60006020820190506130236000830184612fff565b92915050565b61303281612fed565b811461303d57600080fd5b50565b60008135905061304f81613029565b92915050565b6000806040838503121561306c5761306b612d91565b5b600061307a85828601613040565b925050602061308b85828601612f8b565b9150509250929050565b61309e81612f6a565b82525050565b60006020820190506130b96000830184613095565b92915050565b6000806000606084860312156130d8576130d7612d91565b5b60006130e686828701613040565b93505060206130f786828701613040565b925050604061310886828701612f8b565b9150509250925092565b60006020828403121561312857613127612d91565b5b600061313684828501613040565b91505092915050565b600081519050919050565b600082825260208201905092915050565b6000819050602082019050919050565b61317481612f6a565b82525050565b6000613186838361316b565b60208301905092915050565b6000602082019050919050565b60006131aa8261313f565b6131b4818561314a565b93506131bf8361315b565b8060005b838110156131f05781516131d7888261317a565b97506131e283613192565b9250506001810190506131c3565b5085935050505092915050565b60006020820190508181036000830152613217818461319f565b905092915050565b600080fd5b600080fd5b7f4e487b7100000000000000000000000000000000000000000000000000000000600052604160045260246000fd5b61326182612efe565b810181811067ffffffffffffffff821117156132805761327f613229565b5b80604052505050565b6000613293612d87565b905061329f8282613258565b919050565b600067ffffffffffffffff8211156132bf576132be613229565b5b6132c882612efe565b9050602081019050919050565b82818337600083830152505050565b60006132f76132f2846132a4565b613289565b90508281526020810184848401111561331357613312613224565b5b61331e8482856132d5565b509392505050565b600082601f83011261333b5761333a61321f565b5b813561334b8482602086016132e4565b91505092915050565b60006020828403121561336a57613369612d91565b5b600082013567ffffffffffffffff81111561338857613387612d96565b5b61339484828501613326565b91505092915050565b600080604083850312156133b4576133b3612d91565b5b60006133c285828601613040565b92505060206133d385828601612e6d565b9150509250929050565b600067ffffffffffffffff8211156133f8576133f7613229565b5b61340182612efe565b9050602081019050919050565b600061342161341c846133dd565b613289565b90508281526020810184848401111561343d5761343c613224565b5b6134488482856132d5565b509392505050565b600082601f8301126134655761346461321f565b5b813561347584826020860161340e565b91505092915050565b6000806000806080858703121561349857613497612d91565b5b60006134a687828801613040565b94505060206134b787828801613040565b93505060406134c887828801612f8b565b925050606085013567ffffffffffffffff8111156134e9576134e8612d96565b5b6134f587828801613450565b91505092959194509250565b6000806040838503121561351857613517612d91565b5b600061352685828601613040565b925050602061353785828601613040565b9150509250929050565b7f4f776e61626c653a2063616c6c6572206973206e6f7420746865206f776e6572600082015250565b6000613577602083612eba565b915061358282613541565b602082019050919050565b600060208201905081810360008301526135a68161356a565b9050919050565b7f4e487b7100000000000000000000000000000000000000000000000000000000600052602260045260246000fd5b600060028204905060018216806135f457607f821691505b60208210811415613608576136076135ad565b5b50919050565b7f4552433732313a20617070726f76656420717565727920666f72206e6f6e657860008201527f697374656e7420746f6b656e0000000000000000000000000000000000000000602082015250565b600061366a602c83612eba565b91506136758261360e565b604082019050919050565b600060208201905081810360008301526136998161365d565b9050919050565b7f4552433732313a20617070726f76616c20746f2063757272656e74206f776e6560008201527f7200000000000000000000000000000000000000000000000000000000000000602082015250565b60006136fc602183612eba565b9150613707826136a0565b604082019050919050565b6000602082019050818103600083015261372b816136ef565b9050919050565b7f4552433732313a20617070726f76652063616c6c6572206973206e6f74206f7760008201527f6e6572206e6f7220617070726f76656420666f7220616c6c0000000000000000602082015250565b600061378e603883612eba565b915061379982613732565b604082019050919050565b600060208201905081810360008301526137bd81613781565b9050919050565b7f4552433732313a207472616e736665722063616c6c6572206973206e6f74206f60008201527f776e6572206e6f7220617070726f766564000000000000000000000000000000602082015250565b6000613820603183612eba565b915061382b826137c4565b604082019050919050565b6000602082019050818103600083015261384f81613813565b9050919050565b7f455243373231456e756d657261626c653a206f776e657220696e646578206f7560008201527f74206f6620626f756e6473000000000000000000000000000000000000000000602082015250565b60006138b2602b83612eba565b91506138bd82613856565b604082019050919050565b600060208201905081810360008301526138e1816138a5565b9050919050565b7f4e487b7100000000000000000000000000000000000000000000000000000000600052601160045260246000fd5b600061392282612f6a565b915061392d83612f6a565b9250827fffffffffffffffffffffffffffffffffffffffffffffffffffffffffffffffff03821115613962576139616138e8565b5b828201905092915050565b600061397882612f6a565b915061398383612f6a565b9250817fffffffffffffffffffffffffffffffffffffffffffffffffffffffffffffffff04831182151516156139bc576139bb6138e8565b5b828202905092915050565b60006139d282612f6a565b91507fffffffffffffffffffffffffffffffffffffffffffffffffffffffffffffffff821415613a0557613a046138e8565b5b600182019050919050565b7f4e487b7100000000000000000000000000000000000000000000000000000000600052603260045260246000fd5b7f455243373231456e756d657261626c653a20676c6f62616c20696e646578206f60008201527f7574206f6620626f756e64730000000000000000000000000000000000000000602082015250565b6000613a9b602c83612eba565b9150613aa682613a3f565b604082019050919050565b60006020820190508181036000830152613aca81613a8e565b9050919050565b7f4552433732313a206f776e657220717565727920666f72206e6f6e657869737460008201527f656e7420746f6b656e0000000000000000000000000000000000000000000000602082015250565b6000613b2d602983612eba565b9150613b3882613ad1565b604082019050919050565b60006020820190508181036000830152613b5c81613b20565b9050919050565b7f4552433732313a2062616c616e636520717565727920666f7220746865207a6560008201527f726f206164647265737300000000000000000000000000000000000000000000602082015250565b6000613bbf602a83612eba565b9150613bca82613b63565b604082019050919050565b60006020820190508181036000830152613bee81613bb2565b9050919050565b7f4552433732314d657461646174613a2055524920717565727920666f72206e6f60008201527f6e6578697374656e7420746f6b656e0000000000000000000000000000000000602082015250565b6000613c51602f83612eba565b9150613c5c82613bf5565b604082019050919050565b60006020820190508181036000830152613c8081613c44565b9050919050565b600081905092915050565b6000613c9d82612eaf565b613ca78185613c87565b9350613cb7818560208601612ecb565b80840191505092915050565b60008190508160005260206000209050919050565b60008154613ce5816135dc565b613cef8186613c87565b94506001821660008114613d0a5760018114613d1b57613d4e565b60ff19831686528186019350613d4e565b613d2485613cc3565b60005b83811015613d4657815481890152600182019150602081019050613d27565b838801955050505b50505092915050565b6000613d638286613c92565b9150613d6f8285613c92565b9150613d7b8284613cd8565b9150819050949350505050565b7f4f776e61626c653a206e6577206f776e657220697320746865207a65726f206160008201527f6464726573730000000000000000000000000000000000000000000000000000602082015250565b6000613de4602683612eba565b9150613def82613d88565b604082019050919050565b60006020820190508181036000830152613e1381613dd7565b9050919050565b7f4552433732313a206f70657261746f7220717565727920666f72206e6f6e657860008201527f697374656e7420746f6b656e0000000000000000000000000000000000000000602082015250565b6000613e76602c83612eba565b9150613e8182613e1a565b604082019050919050565b60006020820190508181036000830152613ea581613e69565b9050919050565b7f4552433732313a207472616e73666572206f6620746f6b656e2074686174206960008201527f73206e6f74206f776e0000000000000000000000000000000000000000000000602082015250565b6000613f08602983612eba565b9150613f1382613eac565b604082019050919050565b60006020820190508181036000830152613f3781613efb565b9050919050565b7f4552433732313a207472616e7366657220746f20746865207a65726f2061646460008201527f7265737300000000000000000000000000000000000000000000000000000000602082015250565b6000613f9a602483612eba565b9150613fa582613f3e565b604082019050919050565b60006020820190508181036000830152613fc981613f8d565b9050919050565b6000613fdb82612f6a565b9150613fe683612f6a565b925082821015613ff957613ff86138e8565b5b828203905092915050565b7f4552433732313a20617070726f766520746f2063616c6c657200000000000000600082015250565b600061403a601983612eba565b915061404582614004565b602082019050919050565b600060208201905081810360008301526140698161402d565b9050919050565b7f4552433732313a207472616e7366657220746f206e6f6e20455243373231526560008201527f63656976657220696d706c656d656e7465720000000000000000000000000000602082015250565b60006140cc603283612eba565b91506140d782614070565b604082019050919050565b600060208201905081810360008301526140fb816140bf565b9050919050565b7f4e487b7100000000000000000000000000000000000000000000000000000000600052601260045260246000fd5b600061413c82612f6a565b915061414783612f6a565b92508261415757614156614102565b5b828204905092915050565b600061416d82612f6a565b915061417883612f6a565b92508261418857614187614102565b5b828206905092915050565b600081519050919050565b600082825260208201905092915050565b60006141ba82614193565b6141c4818561419e565b93506141d4818560208601612ecb565b6141dd81612efe565b840191505092915050565b60006080820190506141fd6000830187612fff565b61420a6020830186612fff565b6142176040830185613095565b818103606083015261422981846141af565b905095945050505050565b60008151905061424381612dc7565b92915050565b60006020828403121561425f5761425e612d91565b5b600061426d84828501614234565b91505092915050565b7f4e487b7100000000000000000000000000000000000000000000000000000000600052603160045260246000fd5b7f4552433732313a206d696e7420746f20746865207a65726f2061646472657373600082015250565b60006142db602083612eba565b91506142e6826142a5565b602082019050919050565b6000602082019050818103600083015261430a816142ce565b9050919050565b7f4552433732313a20746f6b656e20616c7265616479206d696e74656400000000600082015250565b6000614347601c83612eba565b915061435282614311565b602082019050919050565b600060208201905081810360008301526143768161433a565b905091905056fea26469706673582212203b6f1e15d04bcf3a6675513fc6b3a733278b2216c331134ee3580e263705d8e764736f6c634300080a0033",
  "immutableReferences": {},
  "source": "// SPDX-License-Identifier: hamtronmedia\n\n// Created by hamtronmedia\n// HOTKEY\n\npragma solidity ^0.8.0;\n\nimport \"@openzeppelin/contracts/token/ERC721/extensions/ERC721Enumerable.sol\";\nimport \"@openzeppelin/contracts/access/Ownable.sol\";\n\ncontract Hotkey is ERC721Enumerable, Ownable {\n    using Strings for uint256;\n\n    string public baseURI;\n    string public baseExtension = \".json\";\n    uint256 public cost = 0.01 ether;\n    uint256 public maxSupply = 10;\n    uint256 public maxMintAmount = 2;\n    bool public paused = false;\n    mapping(address => bool) public whitelisted;\n\n    constructor(\n        string memory _name,\n        string memory _symbol,\n        string memory _initBaseURI\n    ) ERC721(_name, _symbol) {\n        setBaseURI(_initBaseURI);\n        mint(msg.sender, 2);\n    }\n\n    // internal\n    function _baseURI() internal view virtual override returns (string memory) {\n        return baseURI;\n    }\n\n    // public\n    function mint(address _to, uint256 _mintAmount) public payable {\n        uint256 supply = totalSupply();\n        require(!paused);\n        require(_mintAmount > 0);\n        require(_mintAmount <= maxMintAmount);\n        require(supply + _mintAmount <= maxSupply);\n\n        if (msg.sender != owner()) {\n            if (whitelisted[msg.sender] != true) {\n                require(msg.value >= cost * _mintAmount);\n            }\n        }\n\n        for (uint256 i = 1; i <= _mintAmount; i++) {\n            _safeMint(_to, supply + i);\n        }\n    }\n\n    function walletOfOwner(address _owner)\n        public\n        view\n        returns (uint256[] memory)\n    {\n        uint256 ownerTokenCount = balanceOf(_owner);\n        uint256[] memory tokenIds = new uint256[](ownerTokenCount);\n        for (uint256 i; i < ownerTokenCount; i++) {\n            tokenIds[i] = tokenOfOwnerByIndex(_owner, i);\n        }\n        return tokenIds;\n    }\n\n    function tokenURI(uint256 tokenId)\n        public\n        view\n        virtual\n        override\n        returns (string memory)\n    {\n        require(\n            _exists(tokenId),\n            \"ERC721Metadata: URI query for nonexistent token\"\n        );\n\n        string memory currentBaseURI = _baseURI();\n        return\n            bytes(currentBaseURI).length > 0\n                ? string(\n                    abi.encodePacked(\n                        currentBaseURI,\n                        tokenId.toString(),\n                        baseExtension\n                    )\n                )\n                : \"\";\n    }\n\n    //only owner\n    function setCost(uint256 _newCost) public onlyOwner {\n        cost = _newCost;\n    }\n\n    function setmaxMintAmount(uint256 _newmaxMintAmount) public onlyOwner {\n        maxMintAmount = _newmaxMintAmount;\n    }\n\n    function setBaseURI(string memory _newBaseURI) public onlyOwner {\n        baseURI = _newBaseURI;\n    }\n\n    function setBaseExtension(string memory _newBaseExtension)\n        public\n        onlyOwner\n    {\n        baseExtension = _newBaseExtension;\n    }\n\n    function pause(bool _state) public onlyOwner {\n        paused = _state;\n    }\n\n    function whitelistUser(address _user) public onlyOwner {\n        whitelisted[_user] = true;\n    }\n\n    function removeWhitelistUser(address _user) public onlyOwner {\n        whitelisted[_user] = false;\n    }\n\n    function withdraw() public payable onlyOwner {\n        require(payable(msg.sender).send(address(this).balance));\n    }\n}\n",
  "sourcePath": "/Users/danielhamilton/Local Sites/hammyhub/app/public/blue-mountain/smart-template/smart-contracts/contracts/Danft.sol",
  "compiler": {
    "name": "solc",
    "version": "0.8.10+commit.fc410830.Emscripten.clang"
  },
  "schemaVersion": "3.4.3",
  "updatedAt": "2021-12-04T11:35:25.240Z",
  "devdoc": {
    "kind": "dev",
    "methods": {
      "approve(address,uint256)": {
        "details": "See {IERC721-approve}."
      },
      "balanceOf(address)": {
        "details": "See {IERC721-balanceOf}."
      },
      "getApproved(uint256)": {
        "details": "See {IERC721-getApproved}."
      },
      "isApprovedForAll(address,address)": {
        "details": "See {IERC721-isApprovedForAll}."
      },
      "name()": {
        "details": "See {IERC721Metadata-name}."
      },
      "owner()": {
        "details": "Returns the address of the current owner."
      },
      "ownerOf(uint256)": {
        "details": "See {IERC721-ownerOf}."
      },
      "renounceOwnership()": {
        "details": "Leaves the contract without owner. It will not be possible to call `onlyOwner` functions anymore. Can only be called by the current owner. NOTE: Renouncing ownership will leave the contract without an owner, thereby removing any functionality that is only available to the owner."
      },
      "safeTransferFrom(address,address,uint256)": {
        "details": "See {IERC721-safeTransferFrom}."
      },
      "safeTransferFrom(address,address,uint256,bytes)": {
        "details": "See {IERC721-safeTransferFrom}."
      },
      "setApprovalForAll(address,bool)": {
        "details": "See {IERC721-setApprovalForAll}."
      },
      "supportsInterface(bytes4)": {
        "details": "See {IERC165-supportsInterface}."
      },
      "symbol()": {
        "details": "See {IERC721Metadata-symbol}."
      },
      "tokenByIndex(uint256)": {
        "details": "See {IERC721Enumerable-tokenByIndex}."
      },
      "tokenOfOwnerByIndex(address,uint256)": {
        "details": "See {IERC721Enumerable-tokenOfOwnerByIndex}."
      },
      "tokenURI(uint256)": {
        "details": "See {IERC721Metadata-tokenURI}."
      },
      "totalSupply()": {
        "details": "See {IERC721Enumerable-totalSupply}."
      },
      "transferFrom(address,address,uint256)": {
        "details": "See {IERC721-transferFrom}."
      },
      "transferOwnership(address)": {
        "details": "Transfers ownership of the contract to a new account (`newOwner`). Can only be called by the current owner."
      }
    },
    "version": 1
  },
  "userdoc": {
    "kind": "user",
    "methods": {},
    "version": 1
  }
}